:100000000C9462000C948A000C948A000C948A0070
:100010000C941D040C948A000C948A000C948A00A1
:100020000C948A000C948A000C948A000C948A0028
:100030000C948A000C948A000C948A000C948A0018
:100040000C94D3030C948A000C94A1030C947B03AE
:100050000C948A000C948A000C948A000C948A00F8
:100060000C948A000C948A000000000023002600F3
:10007000290000000000240027002A0000000000E2
:10008000250028002B0004040404040404040202D4
:100090000202020203030303030301020408102007
:1000A0004080010204081020010204081020000012
:1000B0000008000201000003040700000000000027
:1000C0000000840411241FBECFEFD8E0DEBFCDBFF7
:1000D00022E0A4E8B1E001C01D92AE37B207E1F71B
:1000E00011E0A0E0B1E0ECE1F1E102C005900D9279
:1000F000A438B107D9F710E0C2E6D0E004C02197D8
:10010000FE010E946007C136D107C9F70E94C304EF
:100110000C948C080C940000E7E9F1E0A089B18907
:1001200082E08C93A485B5851C92A685B7858FEC5B
:100130008C93108EA489B58986E08C93A289B389AB
:100140008C9180618C93A289B3898C9188608C9307
:10015000A289B3898C9180688C930288F389E02D01
:1001600080818F7D80830895CF93DF9390E0FC01A1
:10017000E656FF4F2491FC01EA57FF4F84918823F4
:10018000C1F090E0880F991FFC01EE58FF4FC59118
:10019000D491FC01E458FF4FA591B4919FB7F89416
:1001A0008881E22FE0958E2388838C91E823EC935D
:1001B0009FBFDF91CF910895CF92DF92EF92FF9290
:1001C0000F931F93CF93DF936C017A018B01C0E0F3
:1001D000D0E0CE15DF0581F0D8016D918D01D601FB
:1001E000ED91FC910190F081E02DC6010995892BDC
:1001F00011F02196EECF7E01C701DF91CF911F91C3
:100200000F91FF90EF90DF90CF900895089580E0D8
:1002100090E00895FC01538D448D252F30E0842F0C
:1002200090E0821B930B541710F0CF96089501971E
:100230000895FC01918D828D981761F0828DDF0108
:10024000A80FB11D5D968C91928D9F5F9F73928FC9
:1002500090E008958FEF9FEF0895FC01918D828DBE
:10026000981731F0828DE80FF11D858D90E008958B
:100270008FEF9FEF0895FC01918D228D892F90E0E3
:10028000805C9F4F821B91098F739927089587E99E
:1002900091E00E943B0121E0892B09F420E0822FAC
:1002A0000895FC01848DDF01A80FB11DA35ABF4F33
:1002B0002C91848D90E001968F739927848FA68965
:1002C000B7892C93A089B1898C91837080648C93B9
:1002D000938D848D981306C00288F389E02D808168
:1002E0008F7D80830895EF92FF920F931F93CF939A
:1002F000DF93EC0181E0888F9B8D8C8D981305C076
:10030000E889F989808185FD26C0F62E0B8D10E0E5
:100310000F5F1F4F0F731127E02E8C8DE8120CC05A
:100320000FB607FCFACFE889F989808185FFF5CF00
:10033000CE010E945101F1CF8B8DFE01E80FF11D1E
:10034000E35AFF4FF0829FB7F8940B8FEA89FB893D
:10035000808180620AC09FB7F894EE89FF8960832C
:10036000E889F98980818370806480839FBF81E000
:1003700090E0DF91CF911F910F91FF90EF90089542
:10038000CF93DF93EC01888D8823C9F0EA89FB893C
:10039000808185FD05C0A889B9898C9186FD0FC033
:1003A0000FB607FCF5CF808185FFF2CFA889B98908
:1003B0008C9185FFEDCFCE010E945101E7CFDF91F7
:1003C000CF91089580E090E0892B29F00E944701A9
:1003D00081110C9400000895833081F028F481305D
:1003E00099F08230A1F008958730A9F08830B9F0F3
:1003F0008430D1F4809180008F7D03C08091800093
:100400008F7780938000089584B58F7702C084B57C
:100410008F7D84BD08958091B0008F7703C0809157
:10042000B0008F7D8093B0000895CF93DF93282F85
:1004300030E0F901E255FF4F8491F901E656FF4F94
:10044000D491F901EA57FF4FC491CC2389F081116F
:100450000E94EC01EC2FF0E0EE0FFF1FE458FF4F7D
:10046000A591B4918FB7F894EC91ED2BEC938FBFDD
:10047000DF91CF910895CF93DF93282F30E0F901DA
:10048000E255FF4F8491F901E656FF4FD491F901EF
:10049000EA57FF4FC491CC2391F081110E94EC01E7
:1004A000EC2FF0E0EE0FFF1FE859FF4FA591B4913C
:1004B000EC91ED2381E090E021F480E002C080E047
:1004C00090E0DF91CF9108953FB7F8948091890132
:1004D00090918A01A0918B01B0918C0126B5A89BC7
:1004E00005C02F3F19F00196A11DB11D3FBFBA2FC6
:1004F000A92F982F8827820F911DA11DB11DBC0126
:10050000CD0142E0660F771F881F991F4A95D1F7EA
:1005100008958F929F92AF92BF92CF92DF92EF9207
:10052000FF926B017C010E9464024B015C01C114CB
:10053000D104E104F104F1F00E946402DC01CB017A
:1005400088199909AA09BB09883E9340A105B105FC
:1005500070F321E0C21AD108E108F10888EE880E94
:1005600083E0981EA11CB11CC114D104E104F10464
:1005700019F7DDCFFF90EF90DF90CF90BF90AF9055
:100580009F908F9008952FB7F89460918501709196
:10059000860180918701909188012FBF089500976F
:1005A00069F0FC0101900020E9F73197AF01481B89
:1005B000590BBC0187E991E00C94DC0080E090E0ED
:1005C0000895CF93DF930E94CF02EC018DE491E078
:1005D0000E94CF028C0F9D1FDF91CF9108958F92C3
:1005E0009F92AF92BF920F931F93CF93DF93CDB79C
:1005F000DEB7A1970FB6F894DEBF0FBECDBF19A22C
:10060000423008F44AE08E010F5D1F4F842E912C7A
:10061000A12CB12CA50194010E943E07E62FB9013F
:10062000CA0101501109EA3014F4E05D01C0E95C2F
:10063000D801EC93232B242B252B61F7C8010E94B2
:10064000CF02A1960FB6F894DEBF0FBECDBFDF91EB
:10065000CF911F910F91BF90AF909F908F90089571
:10066000CF92DF92EF92FF92CF93DF936B017C01E9
:100670006DE287E991E00E947301EC01662777271C
:10068000CB016C197D098E099F094AE00E94EF0297
:100690008C0F9D1FDF91CF91FF90EF90DF90CF9057
:1006A00008950C94CF02CF93DF93BC01990F880B70
:1006B000990B97FF03C00E94300303C04AE00E94D9
:1006C000EF02EC018DE491E00E94CF028C0F9D1FA0
:1006D000DF91CF91089588E291E00E94510382E377
:1006E00091E00E94510380918D0190918E010C94B4
:1006F00053030E9487081F920F920FB60F92112486
:100700002F933F934F935F936F937F938F939F9319
:10071000AF93BF93EF93FF9387E991E00E9451015C
:10072000FF91EF91BF91AF919F918F917F916F91C9
:100730005F914F913F912F910F900FBE0F901F909F
:1007400018951F920F920FB60F9211242F938F932B
:100750009F93EF93FF93E091A701F091A80180810F
:10076000E091AD01F091AE0182FD12C090818091C7
:10077000B0018F5F8F732091B101821751F0E0912A
:10078000B001F0E0E956FE4F958F8093B00101C0B3
:100790008081FF91EF919F918F912F910F900FBECC
:1007A0000F901F9018951F920F920FB60F92112461
:1007B0002F933F938F939F93AF93BF938091850126
:1007C00090918601A0918701B091880130918401B8
:1007D00023E0230F2D3720F40196A11DB11D05C084
:1007E00026E8230F0296A11DB11D2093840180935A
:1007F000850190938601A0938701B0938801809131
:10080000890190918A01A0918B01B0918C01019690
:10081000A11DB11D8093890190938A01A0938B0142
:10082000B0938C01BF91AF919F918F913F912F9188
:100830000F900FBE0F901F9018951F920F920FB63A
:100840000F9211240F931F932F933F934F935F9316
:100850006F937F938F939F93AF93BF93CF93DF93C8
:10086000EF93FF93C0919101D091920188810E94F2
:100870003B02182F8A810E943B02880F991F812B0F
:10088000EC818E1761F194E0E902F0011124282F28
:10089000082E000C330BE22BF32BEA5FFE4F408156
:1008A000042E000C550B660B770B0D811E812F81DA
:1008B0003885400F511F621F731F4D835E836F8306
:1008C0007887833059F492E07595679557954795E9
:1008D0009A95D1F749875A876B877C878C83FF91DC
:1008E000EF91DF91CF91BF91AF919F918F917F91C8
:1008F0006F915F914F913F912F911F910F910F90A9
:100900000FBE0F901F901895E7E9F1E01382128255
:1009100088EE93E0A0E0B0E084839583A683B7835C
:100920008AE191E09183808385EC90E095878487CC
:1009300084EC90E09787868780EC90E0918B808BA9
:1009400081EC90E0938B828B82EC90E0958B848B92
:1009500086EC90E0978B868B118E128E138E148E00
:10096000E4E3F2E01682178210861186128613865F
:100970001486158616861786108A118A128A138A9B
:10098000148A158A0895789484B5826084BD84B5EC
:10099000816084BD85B5826085BD85B5816085BD7A
:1009A00080916E00816080936E0010928100809132
:1009B00081008260809381008091810081608093BA
:1009C0008100809180008160809380008091B100DF
:1009D00084608093B1008091B00081608093B0000A
:1009E00080917A00846080937A0080917A0082609E
:1009F00080937A0080917A00816080937A00809160
:100A00007A00806880937A001092C100109276027A
:100A100010927702109278021092790210923602A8
:100A20001092370210923802109239020E94C302CB
:100A30006B017C014B015C0128EB820E2BE0921EC6
:100A4000A11CB11C0E94C3026C157D058E059F057B
:100A500028F086169706A806B906A0F760ED77E09D
:100A600080E090E00E9489020E948C000E94C302F4
:100A70006093360270933702809338029093390264
:100A80008EE391E00E9451030E94C3026B017C013E
:100A90004B015C013AE0830E911CA11CB11C0E9429
:100AA000C3026C157D058E059F0528F086169706F6
:100AB000A806B906A0F781E080934A020E948C0044
:100AC00080E591E00E94E1028FE00E94B4008091F5
:100AD000680084608093680080916C00806C8093D3
:100AE0006C008DE090E00E946607EC0186E090E0EB
:100AF0009983888387E090E09B838A8386E00E94C5
:100B0000B40086E00E94150287E00E94B40087E0EE
:100B10000E94150283E08C831D821E821F8218862C
:100B200019861A861B861C86D0939201C093910168
:100B300089E591E00E94E10284EF882E9924939444
:100B4000A12CB12C92E0292E312C04E010E0C1E060
:100B5000D0E00E94C302672B682B692B41F40E94EE
:100B6000C302623071058105910508F4E0C00E945E
:100B7000C302C0909301D0909401E0909501F09051
:100B800096016C157D058E059F0540F460939301D9
:100B9000709394018093950190939601C090930176
:100BA000D0909401E0909501F09096019B01AC01EA
:100BB0002C193D094E095F0969017A013AEFC31604
:100BC000D104E104F10408F4B2C06093930170937E
:100BD00094018093950190939601809242029092A5
:100BE0004302A0924402B092450210924602109233
:100BF0004702109248021092490280913A02909165
:100C00003B02A0913C02B0913D0280933E02909342
:100C10003F02A0934002B09341020E94C30260933E
:100C20003A0270933B0280933C0290933D020E94F3
:100C3000C302609336027093370280933802909318
:100C400039020E94C3026B017C0180E791E00E949F
:100C500051034AE061E070E080E090E00E94EF0222
:100C600087E791E00E9451034AE0C701B6010E9464
:100C7000EF0289E791E00E94510380913A0290913E
:100C80003B02A0913C02B0913D02A7019601281BB6
:100C9000390B4A0B5B0BCA01B9014AE00E94EF0213
:100CA00089E791E00E94510380913A0290913B02C2
:100CB000A0913C02B0913D02C0903E02D0903F0214
:100CC000E0904002F0904102BC01CD016C197D0919
:100CD0008E099F094AE00E94EF028BE791E00E9493
:100CE00051030E94C3024AE00E94EF028DE791E0A7
:100CF0000E94E1020E94C3026B017C012B013C01B6
:100D000035E0430E511C611C711C0E94C3026C151E
:100D10007D058E059F0508F0AAC00E94C30260935E
:100D20003A0270933B0280933C0290933D0241E46F
:100D300040937C0080917A00806480937A00809157
:100D40007A0086FDFCCFE090780080917900F12C4C
:100D5000F82AC7010E945303E114F10429F4109208
:100D60008E0110928D0158C0C70181559109489795
:100D700058F480918D0190918E01019729F0D093C4
:100D80008E01C0938D0146C0C7018D589109099706
:100D900058F480918D0190918E01049729F0109361
:100DA0008E0100938D0136C0C701845C91090E97B6
:100DB00058F480918D0190918E01029729F0309224
:100DC0008E0120928D0126C0C701895191404D9717
:100DD00068F480918D0190918E01039739F083E042
:100DE00090E090938E0180938D0114C09DECE91AE0
:100DF00091E0F90A29E0E216F10470F480918D0186
:100E000090918E01059741F045E050E050938E019E
:100E100040938D010E946B03E0919101F09192014A
:100E2000E184F28480918F0190919001E816F90697
:100E3000A9F0B7010F2C000C880B990B97FF03C08A
:100E40000E94300303C04AE00E94EF028DE491E06B
:100E50000E94CF02F0929001E0928F0168EE73E061
:100E600080E090E00E9489020E94E20172CE461664
:100E700057066806790608F048CF4FCFA1E21A2E30
:100E8000AA1BBB1BFD010DC0AA1FBB1FEE1FFF1F2E
:100E9000A217B307E407F50720F0A21BB30BE40B7E
:100EA000F50B661F771F881F991F1A9469F76095C5
:100EB0007095809590959B01AC01BD01CF0108957F
:100EC000EE0FFF1F0590F491E02D09940F931F93EF
:100ED000CF93DF938230910510F482E090E0E091AF
:100EE0007C02F0917D0220E030E0A0E0B0E030979D
:100EF00019F1408151810281138148175907C8F0C7
:100F00008417950769F4109731F012960C93129795
:100F100013961C9327C000937C0210937D0222C07D
:100F20002115310519F04217530718F49A01BD0134
:100F3000EF01DF01F801DBCF21153105F9F0281BA6
:100F4000390B2430310580F48A819B81611571054C
:100F500021F0FB019383828304C090937D028093F0
:100F60007C02FE01329644C0FE01E20FF31F819322
:100F7000919322503109398328833AC020917A0213
:100F800030917B02232B41F4209102013091030127
:100F900030937B0220937A0220910001309101016D
:100FA0002115310541F42DB73EB740910401509110
:100FB0000501241B350BE0917A02F0917B02E217C8
:100FC000F307A0F42E1B3F0B2817390778F0AC016C
:100FD0004E5F5F4F2417350748F04E0F5F1F509349
:100FE0007B0240937A028193919302C0E0E0F0E0AB
:100FF000CF01DF91CF911F910F910895CF93DF9390
:10100000009709F481C0FC01329713821282A091EB
:101010007C02B0917D02109781F420813181820F92
:10102000931F20917A0230917B022817390751F5DE
:10103000F0937B02E0937A0267C0ED0120E030E09C
:10104000CE17DF0740F44A815B819E0141155105AF
:10105000F1F0EA01F5CFD383C28340815181840F3F
:10106000951FC817D90759F488819981840F951F56
:101070000296918380838A819B8193838283211549
:10108000310529F4F0937D02E0937C023DC0E90133
:10109000FB83EA8349915991C40FD51FEC17FD07D3
:1010A00061F480819181840F951F0296E9019983F3
:1010B0008883828193819B838A83E0E0F0E01296AB
:1010C0008D919C911397009719F0FD01DC01F7CFEA
:1010D0008D919C9111979D012E5F3F4F820F931F21
:1010E00020917A0230917B022817390769F43097F2
:1010F00029F410927D0210927C0202C013821282A7
:10110000B0937B02A0937A02DF91CF91089581E0A2
:0C11100090E0F8940C948C08F894FFCF49
:10111C0000007E02800000FF0100010000FFFF00C4
:10112C0000010001FF00000000007301DC000A0157
:10113C00C0013B0119012D01496E206D656E753A98
:10114C002000416374696F6E2069733A2000564D1C
:10115C004450565F317C315F564D4450560D0A0059
:10116C005374617274696E6700496E697469616C5D
:10117C00697A696E6720636F6D706C657465640065
:10118C00564D4450455F003A323A007C005F564D54
:04119C004450450076
:00000001FF
