:100000000C947A000C94A2000C94A2000C94A20010
:100010000C94A2000C940A0D0C94A2000C947E0E79
:100020000C94A2000C94A2000C94A2000C94F3096E
:100030000C94A2000C94A2000C94A2000C94A200B8
:100040000C94FB020C94A2000C94A10D0C947B0D5B
:100050000C94A2000C94A2000C94A2000C94A20098
:100060000C9445030C94A200084AD73B3BCE016E8A
:1000700084BCBFFDC12F3D6C74319ABD56833DDAFF
:100080003D00C77F11BED9E4BB4C3E916BAAAABE0E
:10009000000000803F0000000000240027002A002C
:1000A00000000000230026002900000000002500B9
:1000B00028002B00040404040404040402020202C5
:1000C000020203030303030301020408102040801B
:1000D000010204081020010204081020000000089A
:1000E00000020100000304070000000000000000FF
:1000F00002008C1311241FBECFEFD8E0DEBFCDBFAE
:1001000014E0A0E0B1E0E2E4F8E302C005900D9253
:10011000A232B107D9F725E0A2E2B4E001C01D92F6
:10012000A93BB207E1F710E0CAE7D0E004C021978D
:10013000FE010E94191BC937D107C9F70E94220F7F
:100140000C941F1C0C940000FC01538D448D252F32
:1001500030E0842F90E0821B930B541710F0CF9661
:10016000089501970895FC01918D828D981761F093
:10017000828DDF01A80FB11D5D968C91928D9F5FDE
:100180009F73928F90E008958FEF9FEF0895FC0189
:10019000918D828D981731F0828DE80FF11D858D3C
:1001A00090E008958FEF9FEF0895FC01918D228DCF
:1001B000892F90E0805C9F4F821B91098F73992754
:1001C000089580E090E0892B29F00E94710D811143
:1001D0000C940000089585ED8093BC008091BC00D4
:1001E00084FDFCCF1092E104089540916E04262F07
:1001F00030E0240F311D21323105DCF42091E1047F
:100200002430C9F4FC0180E090E0861758F4309166
:100210006E042191DC01A25BBB4FA30FB11D2C9397
:100220000196F3CF80916E04680F60936E0480E0B6
:10023000089581E0089582E008950895E0914D04C5
:1002400080914C04E81730F4F0E0E45DFB4F8081CE
:1002500090E008958FEF9FEF089590914D04809165
:100260004C04981750F4E92FF0E0E45DFB4F208137
:1002700030E09F5F90934D0402C02FEF3FEFC90124
:10028000089580914C0490E020914D04821B9109C7
:100290000895CF92DF92EF92FF920F931F93CF9327
:1002A000DF937C01CB018A012091E204222389F0B3
:1002B000EB016B01C40ED51ECC15DD0569F069910B
:1002C000D701ED91FC910190F081E02DC7010995D6
:1002D000F3CF642F0E94F500C801DF91CF911F91E9
:1002E0000F91FF90EF90DF90CF900895CF93DF9321
:1002F0001F92CDB7DEB769832091E2042223D1F0AB
:1003000020910505203240F021E030E0FC013383EC
:10031000228380E090E015C08091E304E82FF0E0B4
:10032000EC51FB4F998190838F5F8093E30480931E
:10033000050505C061E0CE0101960E94F50081E04F
:1003400090E00F90DF91CF910895089580E090E0C4
:1003500008950E94F41BFC01848DDF01A80FB11DDC
:10036000A35ABF4F2C91848D90E001968F739927EB
:10037000848FA689B7892C93A089B1898C918370C9
:1003800080648C93938D848D981306C00288F389C2
:10039000E02D80818F7D80830895EF92FF920F93EF
:1003A0001F93CF93DF93EC0181E0888F9B8D8C8D21
:1003B000981305C0E889F989808185FD26C0F62E4D
:1003C0000B8D10E00F5F1F4F0F731127E02E8C8DE8
:1003D000E8120CC00FB607FCFACFE889F9898081D2
:1003E00085FFF5CFCE010E94AB01F1CF8B8DFE01D1
:1003F000E80FF11DE35AFF4FF0829FB7F8940B8F7F
:10040000EA89FB89808180620AC09FB7F894EE89EF
:10041000FF896083E889F9898081837080648083A3
:100420009FBF81E090E0DF91CF911F910F91FF90EE
:10043000EF900895CF93DF93EC01888D8823C9F066
:10044000EA89FB89808185FD05C0A889B9898C91DD
:1004500086FD0FC00FB607FCF5CF808185FFF2CF78
:10046000A889B9898C9185FFEDCFCE010E94AB019F
:10047000E7CFDF91CF910895833081F028F4813068
:1004800099F08230A1F008958730A9F08830B9F052
:100490008430D1F4809180008F7D03C080918000F2
:1004A0008F7780938000089584B58F7702C084B5DC
:1004B0008F7D84BD08958091B0008F7703C08091B7
:1004C000B0008F7D8093B0000895CF93DF93282FE5
:1004D00030E0F901E452FF4F8491F901E853FF4FF6
:1004E000D491F901EC54FF4FC491CC2391F08111C8
:1004F0000E943C02EC2FF0E0EE0FFF1FE056FF4F92
:10050000A591B491EC91ED2381E090E021F480E09D
:1005100002C080E090E0DF91CF910895CF93DF9308
:1005200090E0FC01E853FF4F2491FC01EC54FF4F95
:100530008491882361F190E0880F991FFC01EA56AD
:10054000FF4FC591D491FC01E655FF4FA591B491A1
:10055000611109C09FB7F894888120958223888310
:10056000EC912E230BC0623061F49FB7F894888120
:10057000322F309583238883EC912E2B2C939FBFB1
:1005800006C08FB7F894E8812E2B28838FBFDF91A8
:10059000CF9108953FB7F894809196049091970475
:1005A000A0919804B091990426B5A89B05C02F3F4F
:1005B00019F00196A11DB11D3FBFBA2FA92F982F89
:1005C0008827820F911DA11DB11DBC01CD0142E004
:1005D000660F771F881F991F4A95D1F708952FB787
:1005E000F894609192047091930480919404909196
:1005F00095042FBF08951F920F920FB60F921124EA
:100600002F933F938F939F93AF93BF9380919204C7
:1006100090919304A0919404B09195043091910429
:1006200023E0230F2D3720F40196A11DB11D05C035
:1006300026E8230F0296A11DB11D209391048093FB
:10064000920490939304A0939404B09395048091A2
:10065000960490919704A0919804B0919904019602
:10066000A11DB11D8093960490939704A0939804C4
:10067000B0939904BF91AF919F918F913F912F912A
:100680000F900FBE0F901F9018951F920F920FB6EC
:100690000F9211242F933F934F935F936F937F9308
:1006A0008F939F93AF93BF93EF93FF938091B90084
:1006B000887F803609F49CC068F5883209F45BC0F5
:1006C00090F4803109F454C038F4882309F4F2C05E
:1006D000883009F44DC0F2C0883109F44CC0803232
:1006E00009F45DC0EBC0803409F468C048F480337D
:1006F00009F455C0883309F0E1C08093DF04D4C009
:10070000803509F44FC0883509F45DC0883409F09C
:10071000D5C0D2C0883909F4C3C0A8F4883709F419
:1007200067C038F4883609F463C0803709F460C0C4
:10073000C5C0883809F4B4C0803909F45FC0803876
:1007400009F0BCC05BC0803B09F484C038F4803A37
:1007500009F466C0883A09F47DC0B0C0803C09F451
:10076000A3C0883C09F4A0C0883B09F486C0A6C099
:100770008091BC0410C09091DE048091DD04981734
:1007800070F5E091DE0481E08E0F8093DE04F0E0EE
:10079000E354FB4F80818093BB0085EC82C0809343
:1007A000DF048AC0E091DE0481E08E0F8093DE04D6
:1007B0008091BB00F0E0E354FB4F80839091DE0416
:1007C0008091DD046AC0E091DE0481E08E0F8093A9
:1007D000DE048091BB00F0E0E354FB4F8083809106
:1007E000E004811169C081E08093BB0484EA5DC0AC
:1007F00083E08093E10410929004CFCF8091900425
:10080000803208F04DC0E091900481E08E0F80931B
:1008100090048091BB00F0E0E059FB4F8083BDCF96
:1008200085EC8093BC001092E104809190048032AA
:1008300030F4E0919004F0E0E059FB4F10826091B9
:10084000900470E080E794E0E0E0F0E00995109219
:10085000900434C084E08093E10410926F041092FD
:100860006E04E0E0F0E0099580916E04811105C00E
:1008700081E080936E0410924E04E0916F0481E059
:100880008E0F80936F04F0E0E25BFB4F80818093DA
:10089000BB0090916F0480916E04981708F47DCF8F
:1008A00085E88093BC000AC085EC8093BC00109260
:1008B000E10404C01092DF040E94EB00FF91EF916D
:1008C000BF91AF919F918F917F916F915F914F9168
:1008D0003F912F910F900FBE0F901F901895CF92C0
:1008E000DF92EF92FF920F931F93CF93DF93EC0170
:1008F0006B017A0189016E817F816F5F7F4F7F83FA
:100900006E83660F771F8C819D810E942E1B9D83B5
:100910008C830097B1F06E817F81FB01E150F0483C
:10092000EE0FFF1FE80FF91FD182C082660F771FFD
:10093000888199810E942E1B99838883009721F4D6
:1009400024C081E292E026C06E817F8161507048B0
:10095000660F771FFC01E60FF71FF182E0826E5FE2
:100960007F4F8A819B810E942E1B9B838A830097E5
:1009700079F0EE81FF81E150F048EE0FFF1FE80FA4
:10098000F91F1183008381E008C08CE392E002C06C
:1009900089E592E00E940F0E80E0DF91CF911F91D8
:1009A0000F91FF90EF90DF90CF9008951F93CF931A
:1009B000DF93EC0181E08093E20488E680930405F4
:1009C0001092E304109205058BE390E00E94790EEB
:1009D0000E941D0E8091E1048111FCCF81E0809383
:1009E000E1048093E0049FEF9093DF041092DE0413
:1009F0009DE09093DD048093BC048091BC04806DE5
:100A00008093BC048091BB04813061F41092BB04DC
:100A10008091BC048093BB008091BC0083FDF8CF23
:100A200085EC01C085EE8093BC008091E1048130AB
:100A3000E1F38091DE048E3018F49091DE0401C061
:100A40009EE0EDEBF4E0ACE2B4E080E0891721F049
:100A500021912D938F5FFACF10924D0480934C0417
:100A600090E08E309105ECF383EA95E00E942D0131
:100A7000182F83EA95E00E942D0120E030E0312F0D
:100A8000822B932B9DAF8CAF83EA95E00E942D01C2
:100A9000182F83EA95E00E942D0120E030E0312FED
:100AA000822B932B9FAF8EAF83EA95E00E942D019E
:100AB000182F83EA95E00E942D01FE01E05CFF4FB4
:100AC00020E030E0312F822B932B9183808383EAC7
:100AD00095E00E942D01182F83EA95E00E942D01D8
:100AE00060E070E0712F862B972BBC01990F880B6B
:100AF000990B0E94F9186A8F7B8F8C8F9D8F83EAE8
:100B000095E00E942D01182F83EA95E00E942D01A7
:100B100020E030E0312F822B932B9FAB8EAB83EA0A
:100B200095E00E942D01182F83EA95E00E942D0187
:100B300020E030E0312F822B932B99AF88AF83EAEE
:100B400095E00E942D01182F83EA95E00E942D0167
:100B500020E030E0312F822B932B9BAF8AAFDF91C7
:100B6000CF911F9108952F923F924F925F926F9273
:100B70007F928F929F92AF92BF92CF92DF92EF922D
:100B8000FF920F931F93CF93DF93CDB7DEB72E97CE
:100B90000FB6F894DEBF0FBECDBF9E878D870E9433
:100BA000EF0269837A838B839C83212C312C2D85E2
:100BB0003E85205C3F4F3A8729874D855E85465BA1
:100BC0005F4F5C874B870E94EF02DC01CB012981DC
:100BD0003A814B815C81821B930BA40BB50B883E41
:100BE0009340A105B10508F04DC28D859E850E94F8
:100BF000D6040E94CA026D837E838F839887A9855D
:100C0000BA856D917C91072E000C880B990B0E9480
:100C1000F9184B015C01ED85FE8564AD75AD072EBD
:100C2000000C880B990B0E94F9186B017C01A5013F
:100C30009401C501B4010E94DD194B015C01A701BB
:100C40009601C701B6010E94DD199B01AC01C501E7
:100C5000B4010E94AF170E94501A6B017C0120E082
:100C600030E0A9010E944A188823F1F0AD85BE85C5
:100C7000DE966D917C91DF97072E000C880B990B07
:100C80000E94F918A70196010E944F180E941B1894
:100C900025E83BEE44E652E40E94DD19ED85FE8531
:100CA0006287738784879587AD85BE85DA966D9157
:100CB0007C91DB97072E000C880B990B0E94F9188A
:100CC0006B017C01ED85FE8562A173A1072E000CEE
:100CD000880B990B0E94F91820E030E040E250E4C4
:100CE0000E94DD199B01AC01C701B6010E94D01919
:100CF00087FD39C0AD85BE851A968D909D90AD90CB
:100D0000BC901D971E964D905D906D907C90519774
:100D1000A3019201C501B4010E94AE1720E030E0AA
:100D2000A9010E94D01987FD1EC02AE939E949E5C9
:100D30005FE3C301B2010E94DD192B013C012AE9E6
:100D400039E949E15EE3C501B4010E94DD199B0167
:100D5000AC01C301B2010E94AF17ED85FE85628729
:100D6000738784879587AD85BE859E966D917C91AE
:100D70009F97072E000C880B990B0E94F91820E012
:100D800030E040E250E40E94DD199B01AC01C70154
:100D9000B6010E944A181816BCF1ED85FE85C28482
:100DA000D384E484F58486849784A088B188A501DF
:100DB0009401C701B6010E94AE1720E030E0A901FE
:100DC0000E944A18181604F12AE939E949E55FE357
:100DD000C501B4010E94DD194B015C012AE939E922
:100DE00049E15EE3C701B6010E94DD199B01AC0138
:100DF000C501B4010E94AF17AD85BE851A966D93EB
:100E00007D938D939C931D97ED85FE85C284D3843D
:100E1000E484F58400811181D80112968D919C9112
:100E200013979C01220F331F220F331F1C96ED9145
:100E3000FC911D97E20FF31F80809180A280B38008
:100E4000C082D182E282F3826D917C913B01B1E05C
:100E50006B1A71088615970519F421E0F8012683AD
:100E600001960E94A91AD80113969C938E9312970B
:100E700017961C92179716968C911697811113C08E
:100E8000A701960118966D917D918D919C911B976C
:100E90000E94AF17F8016087718782879387812C42
:100EA000912C540124C0A5019401C701B6010E94F0
:100EB000AE17D80118962D913D914D915C911B97DD
:100EC0000E94AF176B017C01F801608771878287F0
:100ED0009387B301770C880B990B0E94F9189B013B
:100EE000AC01C701B6010E944F184B015C010E9482
:100EF000CA022D813E814F815885621B730B840B82
:100F0000950B0E94F7182B013C01AD85BE85DA9642
:100F10006D917C91DB97072E000C880B990B0E943A
:100F2000F9186B017C01ED85FE8562A173A1072E86
:100F3000000C880B990B0E94F91820E030E040E289
:100F400050E40E94DD199B01AC01C701B6010E946B
:100F5000D01987FF1AC0AD85BE859E966D917C9194
:100F60009F97072E000C880B990B0E94F91820E020
:100F700030E040E250E40E94DD199B01AC01C70162
:100F8000B6010E944A181816D4F1EB85FC85208121
:100F9000318142815381C701B6010E94AE176B01B6
:100FA0007C01AD85BE8558966D917C915997072E31
:100FB000000C880B990B0E94F9189B01AC01C7012A
:100FC000B6010E944F18A30192010E94DD1920E092
:100FD00034E244E759E40E944F189B01AC01ED85CF
:100FE000FE8566817781808591850E94AF17AD85EA
:100FF000BE8516966D937D938D939C9319972FE8DC
:1010000032EC45E75FE3ED85FE856681778180857B
:1010100091850E94DD196B017C012AE037ED43E2E6
:101020005DE3C501B4010E94DD199B01AC01C7015C
:10103000B6010E94AF179B01AC01AD85BE85169627
:101040006D937D938D939C931997FD018285938574
:10105000A485B58586879787A08BB18BFFEF2F1A64
:101060003F0AAD85BE8512966D917D918D919C91C3
:1010700015970E94AF17ED85FE8562837383848385
:101080009583A1CDB101330C880B990B0E94F918FF
:101090009B01AC01AD85BE8512966D917D918D91C0
:1010A0009C9115970E944F18ED85FE85628373838E
:1010B000848395832E960FB6F894DEBF0FBECDBF06
:1010C000DF91CF911F910F91FF90EF90DF90CF9024
:1010D000BF90AF909F908F907F906F905F904F9058
:1010E0003F902F900895AF92BF92CF92DF92EF92F0
:1010F000FF920F931F93CF93DF938C016B01DC0161
:101100005896CD91DC91599720E030E02C173D079F
:10111000DCF4D8019296ED91FC919397C901880F68
:10112000991FE80FF91F808191818C159D0549F465
:1011300088E792E09F938F930E94091C0F900F9075
:101140003EC02F5F3F4FE2CFCE010196F801918F55
:10115000808F8138FFE39F0718F4880F991F02C022
:101160008FEF9FEF0E94A6157C01892B51F482E935
:1011700092E09F938F930E94091C83E090E00E946D
:101180001F1CCC0FDD1FD8019296AD90BC90939799
:10119000AE01B501C7010E94F91BCE0DDF1DD9823A
:1011A000C882A114B10419F0C5010E943E16F801CD
:1011B000F3A2E2A2D60195961C930E939497DF9129
:1011C000CF911F910F91FF90EF90DF90CF90BF9044
:1011D000AF9008958F929F92AF92BF92CF92DF927D
:1011E000EF92FF920F931F93CF93DF938C01EB014C
:1011F0006A01FC01E28CF38CC7010196938F828F08
:101200008138FFE39F0718F4880F991F02C08FEF02
:101210009FEF0E94A6155C01009749F482E992E0D5
:101220009F938F930E94091C81E090E077C0EE0CA1
:10123000FF1CF80180A091A0A701B4010E94F91B36
:10124000F501EE0DFF1DD183C0838114910419F0C7
:10125000C4010E943E16F801B1A2A0A284A195A1EA
:101260009DA38CA3BE0184A195A10E947308F801DF
:10127000E28CF38CF1E8EF16FFE3FF0620F4C701E0
:10128000880F991F02C08FEF9FEF0E94A6155C0187
:1012900021E0E21AF108EE0CFF1CF801868C978C15
:1012A000A701B4010E94F91BF501EE0DFF1DD182CB
:1012B000C0828114910419F0C4010E943E16F80105
:1012C000B78EA68EC60101978430910540F4FC01CB
:1012D000E95EFE4FE0800E2C000CFF0803C0EE24F8
:1012E000EA94FE2CCA8CDB8CC60101969B8F8A8FF8
:1012F0008138FFE39F0718F4880F991F02C08FEF12
:101300009FEF0E94A6155C01009751F482E992E0DC
:101310009F938F930E94091C82E090E00E941F1C03
:10132000CC0CDD1C88A099A0A601B4010E94F91B79
:10133000F501EC0DFD1D118300838114910419F05A
:10134000C4010E943E16B9A2A8A20A8D1B8D0138C5
:101350002FE3120720F4C801880F991F02C08FEFF6
:101360009FEF0E94A6156C0101501109000F111F7B
:10137000AE8CBF8CA801B501C6010E94F91BF60115
:10138000E00FF11FF182E082A114B10419F0C50150
:101390000E943E16DF8ECE8EDF91CF911F910F916E
:1013A000FF90EF90DF90CF90BF90AF909F908F9085
:1013B0000895CF93DF93EC015D8F4C8F0E94021C48
:1013C000198E188E1B8E1A8E1D8A1C8A1F8A1E8AE1
:1013D0001BA21AA219A218A21DA21CA21F8E1E8E49
:1013E000DF91CF9108951F920F920FB60F921124A3
:1013F0002F923F924F925F926F927F928F929F9225
:10140000AF92BF92CF92DF92EF92FF920F931F9312
:101410002F933F934F935F936F937F938F939F93FC
:10142000AF93BF93EF93FF93CF93DF93CDB7DEB727
:101430002797DEBFCDBF00919A0410919B04D8017D
:1014400018962D913C91199737FDBBC21A96ED91D4
:10145000FC911B97EE0FFF1F14968D919C91159791
:10146000DC01AE0FBF1F8D919C91281739070CF03E
:10147000A8C2220F331FD80112968D919C91139709
:10148000DC01AE0FBF1F0D90BC91A02DA20FB31FAA
:101490006D917C9188EE93E00E94A91A7E836D8302
:1014A0002B01770F66087708D8018D919C91E80F82
:1014B000F91F80819181FC01E20FF31F20803180B0
:1014C00080910001883021F08F3F09F08BC105C069
:1014D000E0EFF0E0B491BF8372C088E08093000138
:1014E000E0EFF0E024912F832F3F09F47BC12130FE
:1014F00009F441C038F1223009F061C01092B00007
:101500001092B1008091B00082608093B000809111
:10151000B10081608093B100ECEBF0E0E491F0E089
:10152000EE0FFF1FE655FF4F859194919093B50400
:101530008093B404E0EDF0E0E491E093B60492E02F
:101540009F833AC214BC15BC84B5826084BD85B546
:10155000816085BDECEBF0E0E491F0E0EE0FFF1F61
:10156000E655FF4F85919491E0EDF0E0E491E09332
:1015700023041F8221C2109280001092810080916A
:1015800081008860809381008091810081608093D8
:101590008100ECEBF0E0E491F0E0EE0FFF1FE65588
:1015A000FF4F85919491E0EDF0E0E491E093220407
:1015B00061E088E00E948E0281E08F838AC0AF8163
:1015C000A7FD10C161E088E00E948E028F818D7FAF
:1015D00009F07FC04101A12CB12C60E072E18AE7E3
:1015E00090E0A50194010E94DF1A29833A834B837E
:1015F0005C8369017A01B1E0CB1AD108E108F108F6
:10160000EFEFCE16D104E104F10409F008F44EC066
:1016100060E472E48FE090E0A50194010E94DF1A7B
:1016200069017A01F1E0CF1AD108E108F1082F81B0
:10163000223009F58FEFC816D104E104F10409F056
:1016400008F481C160E970ED83E090E0A5019401A8
:101650000E94DF1A69017A0191E0C91AD108E108F4
:10166000F108AFEFCA16D104E104F10411F008F05B
:10167000F8C083E027C0BFEFCB16D104E104F1042A
:10168000B9F0B0F068E478EE81E090E0A501940153
:101690000E94DF1A69017A01E1E0CE1AD108E1085F
:1016A000F108FF81FF2309F452C11AC181E001C092
:1016B00082E0BF81B11106C095B5987F892B85BDA9
:1016C00044C085E09091B100987F892B8093B10050
:1016D0003CC04101A12CB12C60E072E18AE790E0AE
:1016E000A50194010E94DF1A69017A01E1E0CE1A96
:1016F000D108E108F108C114D104F1E0EF06F104CA
:1017000088F068E478EE81E090E0A50194010E9401
:10171000DF1A69017A0181E0C81AD108E108F108ED
:1017200083E001C081E09F81913079F49091810044
:10173000987F892B809381004114510461047104C6
:1017400049F42FEF3FEFA9012CC04114510461046B
:10175000710471F09101220F331FAD81BE810E948F
:10176000FE1A28EE33E040E050E00E94BD1A03C0AC
:101770002FEF3FEFA901AF81A13099F0A23019F10D
:10178000A11130C0C7BC2093280430932904409392
:101790002A0450932B0480916E00826080936E0027
:1017A00021C0D0928900C0928800209324043093F5
:1017B0002504409326045093270480916F00826093
:1017C00080936F000FC0C092B3002093B704309392
:1017D000B8044093B9045093BA04809170008260B9
:1017E00080937000F8018085918501960284F385CD
:1017F000E02DEE0FFF1FD80114962D913C91159707
:10180000E20FF31F2081318182179307E4F41996C8
:101810009C938E931897F894C301B2010E94F91813
:1018200023E333E341EA51E40E94DD1920E030E094
:1018300040E85FE30E94AE170E94C11870938900D0
:10184000609388000CC08FEF9FEFF8019387828729
:1018500091878087F89480916F0010926F00789440
:10186000B0C068E478EE81E090E0A50194010E94A8
:10187000DF1A69017A01F1E0CF1AD108E108F10815
:101880002FEFC216D104E104F10441F138F164E212
:1018900074EF80E090E0A50194010E94DF1A6901D5
:1018A0007A0181E0C81AD108E108F1089FEFC91652
:1018B000D104E104F10409F008F403CF62E17AE70E
:1018C00080E090E0A50194010E94DF1A69017A018D
:1018D000A1E0CA1AD108E108F10818C084E0F2CEEC
:1018E0009FEFC916D104E104F10479F170F162E1CE
:1018F0007AE780E090E0A50194010E94DF1A690177
:101900007A0181E0C81AD108E108F1082FEFC21668
:10191000D104E104F104A9F0A0F089819A81AB819E
:10192000BC812AE0B595A795979587952A95D1F71B
:101930006C017D01F1E0CF1AD108E108F10887E0E0
:10194000C1CE86E0BFCE82E0BDCE84E0B2CEEFEF66
:10195000CE16D104E104F10469F160F162E17AE7A5
:1019600080E090E0A50194010E94DF1A69017A01EC
:10197000A1E0CA1AD108E108F108BFEFCB16D104E3
:10198000E104F104A9F0A0F089819A81AB81BC81C6
:101990003AE0B595A795979587953A95D1F76C015B
:1019A0007D01E1E0CE1AD108E108F10885E084CE9E
:1019B00084E082CE83E080CE61E088E00E948E02E7
:1019C00009CE27960FB6F894DEBF0FBECDBFDF91CC
:1019D000CF91FF91EF91BF91AF919F918F917F91A7
:1019E0006F915F914F913F912F911F910F91FF90B8
:1019F000EF90DF90CF90BF90AF909F908F907F90AF
:101A00006F905F904F903F902F900F900FBE0F9070
:101A10001F9018951F920F920FB60F9211240F93DB
:101A20001F932F933F934F935F936F937F938F9366
:101A30009F93AF93BF93CF93DF93EF93FF93C091A7
:101A40009C04D0919D0488810E946502182F8A8190
:101A50000E946502880F991F812BEC818E1761F11E
:101A600094E0E902F0011124282F082E000C330B1A
:101A7000E22BF32BE95FFE4F4081042E000C550B47
:101A8000660B770B0D811E812F813885400F511F0A
:101A9000621F731F4D835E836F837887833059F491
:101AA00092E075956795579547959A95D1F749872F
:101AB0005A876B877C878C83FF91EF91DF91CF9161
:101AC000BF91AF919F918F917F916F915F914F9156
:101AD0003F912F911F910F910F900FBE0F901F906C
:101AE000189586E095E00E94D50021E0892B09F445
:101AF00020E0822F08951F920F920FB60F921124AB
:101B00002F933F934F935F936F937F938F939F9305
:101B1000AF93BF93EF93FF9386E095E00E94AB01F4
:101B2000FF91EF91BF91AF919F918F917F916F91B5
:101B30005F914F913F912F910F900FBE0F901F908B
:101B400018951F920F920FB60F9211242F938F9317
:101B50009F93EF93FF93E0911605F0911705808115
:101B6000E0911C05F0911D0582FD12C090818091CD
:101B70001F058F5F8F7320912005821751F0E09130
:101B80001F05F0E0EA5FFA4F958F80931F0501C0B3
:101B90008081FF91EF919F918F912F910F900FBEB8
:101BA0000F901F901895CF92DF92EF92FF920F93B4
:101BB0001F93CF93DF936C017A018B01C0E0D0E0DB
:101BC000CE15DF0581F0D8016D918D01D601ED9123
:101BD000FC910190F081E02DC6010995892B11F04F
:101BE0002196EECF7E01C701DF91CF911F910F911A
:101BF000FF90EF90DF90CF900895009769F0FC017F
:101C000001900020E9F73197AF01481B590BBC0147
:101C100086E095E00C94D30D80E090E00895CF939A
:101C2000DF930E94FD0DEC018FE194E00E94FD0D19
:101C30008C0F9D1FDF91CF910895309105053132B2
:101C400008F04BC08091E1048111FCCF9091040514
:101C500022E02093E10421E02093E0042FEF209381
:101C6000DF041092DE043093DD04E4EEF4E0ADEB2B
:101C7000B4E020E0321721F041914D932F5FFACF6D
:101C80001092BC042091BC04990F922B9093BC0439
:101C90009091BB04913061F41092BB049091BC040C
:101CA0009093BB009091BC0093FDF8CF95EC01C0E0
:101CB00095EE9093BC009091E1049230E1F3909105
:101CC000DF049F3F79F08091DF04803241F0809102
:101CD000DF04803331F084E005C081E003C082E09E
:101CE00001C083E01092E304109205051092E20413
:101CF0000895682F83EA95E00C9476011F920F9265
:101D00000FB60F9211242F933F934F935F936F93CE
:101D10007F938F939F93AF93BF93CF93DF93EF9373
:101D2000FF938091B7049091B804A091B904B09149
:101D3000BA04892B8A2B8B2B59F19091B604E09130
:101D4000B404F091B5048081892780838091B70421
:101D50009091B804A091B904B091BA04181619066C
:101D60001A061B060CF05BC08091B7049091B80472
:101D7000A091B904B091BA040197A109B109809367
:101D8000B7049093B804A093B904B093BA0447C0C1
:101D900020910001E0EFF0E0E4918FEF80930001EB
:101DA000E130B9F098F0E230C9F4809170008D7F95
:101DB0008093700081E08093B0008091B100887FB3
:101DC00084608093B1001092B30008C010926E003E
:101DD00005C080916F008D7F80936F0030E0F90126
:101DE000E452FF4F8491F901E853FF4FD491F90178
:101DF000EC54FF4FC491CC2391F081110E943C021E
:101E0000EC2FF0E0EE0FFF1FE655FF4FA591B491C8
:101E10009FB7F8948C91D095D823DC939FBFFF9106
:101E2000EF91DF91CF91BF91AF919F918F917F9172
:101E30006F915F914F913F912F910F900FBE0F9037
:101E40001F901895CF93DF93CDB7DEB7A5970FB648
:101E5000F894DEBF0FBECDBF789484B5826084BD98
:101E600084B5816084BD85B5826085BD85B581609E
:101E700085BD80916E00816080936E00109281001C
:101E800080918100826080938100809181008160D7
:101E90008093810080918000816080938000809198
:101EA000B10084608093B1008091B0008160809324
:101EB000B00080917A00846080937A0080917A00EB
:101EC000826080937A0080917A00816080937A00AA
:101ED00080917A00806880937A001092C100E0912E
:101EE0001605F091170582E08083E0911205F091CC
:101EF00013051082E0911405F09115058FEC808395
:101F000010921E05E0911A05F0911B0586E0808372
:101F1000E0911805F0911905808180618083E0913E
:101F20001805F0911905808188608083E09118057B
:101F3000F0911905808180688083E0911805F09107
:101F4000190580818F7D80838DEA92E00E940F0EBB
:101F500060E08FE00E948E0260E080E10E948E02CD
:101F600060E081E10E948E0260E084E10E948E02C6
:101F700060E085E10E948E028DE090E00E94A6154F
:101F80008C0186E090E0D80111969C938E9387E0B7
:101F900090E013969C938E93129760E086E00E94E7
:101FA0008E0260E087E00E948E0283E0F801848365
:101FB0001582168217821086118612861386148661
:101FC00010939D0400939C04F894809168008460B1
:101FD0008093680080916D00806C80936D00789490
:101FE0001092B1041092B0041092AF041092AE049B
:101FF0001092AD041092AC041092AB041092AA049B
:102000001092A9041092A8041092A7041092A6049A
:102010001092A5041092A4041092A3041092A2049A
:102020001092A1041092A00486EB92E00E94FD0D94
:1020300086E290E00E94A6158C0140E050E06FEC33
:1020400072E00E94D9091093B1040093B00486E2B3
:1020500090E00E94A6158C0141E050E069ED72E02D
:102060000E94D9091093AF040093AE0486E290E079
:102070000E94A6158C0142E050E062EE72E00E94E0
:10208000D9091093AD040093AC0486E290E00E945D
:10209000A6158C0143E050E06AEE72E00E94D90977
:1020A0001093AB040093AA0486E290E00E94A61568
:1020B0008C0144E050E060EF72E00E94D909109377
:1020C000A9040093A80486E290E00E94A6158C0162
:1020D00045E050E06FEF72E00E94D9091093A70429
:1020E0000093A60486E290E00E94A6158C0146E0CB
:1020F00050E06CE073E00E94D9091093A5040093AE
:10210000A40486E290E00E94A6158C0147E050E00E
:102110006BE173E00E94D9091093A3040093A20419
:1021200086E290E00E94A6158C0148E050E067E24C
:1021300073E00E94D9091093A1040093A004609158
:10214000AE047091AF048091B0049091B1040E94EC
:1021500073086091AA047091AB0444E050E0809150
:10216000AE049091AF040E94EA086091A0047091BF
:10217000A10442E050E08091AA049091AB040E9437
:10218000EA086091AC047091AD0443E050E08091A6
:10219000A0049091A1040E94EA086091AE0470919D
:1021A000AF0441E050E08091AC049091AD040E94F6
:1021B000EA086091A2047091A3048091AE0490910A
:1021C000AF040E9473086091A6047091A70442E0D6
:1021D00050E08091A2049091A3040E94EA086091CB
:1021E000A8047091A90442E050E08091A604909167
:1021F000A7040E94EA086091A4047091A50442E03B
:1022000050E08091A8049091A9040E94EA0860918E
:10221000A0047091A1048091A6049091A7040E944B
:1022200073086091A0047091A1048091A204909120
:10223000A3040E94730888E393E00E940F0E89E4D0
:1022400093E00E94FD0D8CE090E00E94A615FC0139
:10225000178216828FEF9FEF9387828791878087FF
:10226000118210821382128215821482F0939B04D1
:10227000E0939A042DED31E04DEE51E068E070E01E
:10228000CF010E946F04811103C081E090E010C073
:1022900025E731E049EA51E06AE170E080919A0473
:1022A00090919B040E946F04811104C082E090E031
:1022B0000E941F1C82E693E00E940F0E84EB90E0C8
:1022C0000E94A6158C011C01FAE52F0E311C8AE52F
:1022D000EBE1F1E0D10101900D928A95E1F78EE0FA
:1022E00090E00E94A6157C018FE090E0D701119646
:1022F0009C938E9316961C92169717961C9217977E
:1023000013961C921E92129715961C921E92149769
:10231000F70110861186128613868CE390E00E94E6
:10232000A615D7011C968C931C971D969C93FC01B7
:10233000CC9611921192119211928E179F07C9F7A4
:10234000F801F182E08212821382148215821682D1
:1023500017821086118612861386148615861686B5
:102360001786108A118A0E94CA02D80152966D936C
:102370007D938D939C9355977801BEE1EB0EF11CF4
:102380006801EAE2CE0ED11CF701118E108E15867F
:10239000148611921192CE16DF06B9F784E793E006
:1023A0000E940F0EAA24A394A092E20478E6B72E0E
:1023B000B09204051092E304109205058BE690E0BC
:1023C0000E94790E80E090E00E94790E0E941D0E1E
:1023D000A092E204B09204051092E3041092050565
:1023E0008BE190E00E94790E60E083EA95E00E9424
:1023F00076010E941D0EA092E204B0920405109294
:10240000E304109205058CE190E00E94790E60E0F3
:1024100083EA95E00E9476010E941D0E83E890E019
:10242000D80159969C938E93589780E090E45796E4
:102430009C938E9356978CE993E00E940F0EC801EF
:102440000E94D6045801B2E4AB0EB11CF501D701CD
:1024500058968D919C9159978D939D937D011B96D4
:102460009C938E931A971192119211921192CA16FF
:10247000DB0669F70E94EF022B013C0187E893E03D
:102480000E940F0EC12CD12C0E94EF02DC01CB0167
:1024900084199509A609B709893E9340A105B1059C
:1024A00008F068C0C8010E94D6047801BBA2AAA2A5
:1024B000812C912CD701D6966D917C91D7975E9601
:1024C0008D919C915F978617970724F45F967C9374
:1024D0006E935E97F70182A593A56817790714F4A8
:1024E00073A762A7072E000C880B990B0E94F9189E
:1024F0009B01AC01AAA1BBA16D917D918D919C9195
:102500000E94AF17EAA1FBA161937193819391930C
:10251000FBA3EAA3FFEF8F1A9F0A22E0E20EF11C51
:1025200086E08816910431F696E0C90ED11C75013B
:10253000C6010D2C000CAA0BBB0B8AA39BA3ACA35A
:10254000BDA36AA17BA18CA19DA10E94F9189B014A
:10255000AC01D7016D917D918D919C910E944F1896
:10256000F70161937193819391937F012E163F063A
:1025700041F78ACF85E993E00E940F0E8BE993E043
:102580000E940F0EC8010E94B30581EA93E00E94E9
:102590000F0EC8010E94B3050E94EF0284EA93E087
:1025A0000E940F0EE091B004F091B104F0939F04EB
:1025B000E0939E04808D918D039734F002A0F3A1E7
:1025C000E02D848195810FC01F9282E08F938BEB69
:1025D00093E09F938F930E94091C0F900F900F9090
:1025E0000F9080E090E090939F0480939E040E945F
:1025F0000F0EE0919E04F0919F04428D538D80E078
:1026000090E084179507B4F49C01220F331FA68D28
:10261000B78DA20FB31F6D917C916130710541F4AC
:1026200080A191A1FC01E20FF31F8081918111C073
:102630000196E7CF1F9281E08F9387EE93E09F93FF
:102640008F930E94091C0F900F900F900F9080E0C5
:1026500090E090939F0480939E040E940F0E8AE066
:10266000882E912CA12CB12CE0919C04F0919D041A
:10267000018512858091B2049091B304081719075F
:1026800009F447C06801012E000CEE08FF08F7FEB0
:1026900020C06DE286E095E00E94CD01222733271D
:1026A000A9012C193D094E095F0919A2CE01819695
:1026B0007C01CA01B901A50194010E94BD1A605DA7
:1026C000D7016E937D01211531054105510589F72B
:1026D00015C0A701960119A2FE01B1967F01CA019A
:1026E000B901A50194010E94BD1A605DD7016E93E6
:1026F0007D01211531054105510589F7C7010E946A
:10270000FD0D8FE194E00E94FD0D1093B304009342
:10271000B2040E94E100A8CFE6E0F5E01382128245
:1027200088EE93E0A0E0B0E084839583A683B7832E
:1027300021E032E03183208325EC30E035872487A7
:1027400024EC30E03787268720EC30E0318B208B7B
:1027500021EC30E0338B228B22EC30E0358B248B64
:1027600026EC30E0378B268B118E128E138E148E52
:10277000E3EAF5E01382128284839583A683B7830C
:1027800083E192E0918380830895ABE0B0E0EBECCD
:10279000F3E10C9477176C017B018A01FC0117822D
:1027A0001682838181FFCCC1CE0101963C01F601E6
:1027B0009381F70193FD859193FF81917F01882398
:1027C00009F4BAC1853239F493FD859193FF819163
:1027D0007F01853229F4B60190E00E94DD16E7CF33
:1027E000912C212C312CFFE1F315D8F08B3279F0AC
:1027F00038F4803279F08332A1F4232D20611DC09A
:102800008D3261F0803369F4232D216016C0832D51
:102810008260382EE32DE4603E2E2AC0F32DF8604E
:102820001DC037FC2DC020ED280F2A3040F08E321D
:10283000B9F436FC81C1232D2064322E19C036FE36
:1028400006C08AE0989E200D1124922E11C0EAE065
:102850002E9E200D1124222EF32DF0623F2E08C053
:102860008C3621F4832D8068382E02C0883641F4DE
:10287000F70193FD859193FF81917F018111B3CF82
:10288000982F9F7D9554933028F40C5F1F4F9FE342
:1028900099830DC0833631F0833771F0833509F0A9
:1028A00059C021C0F801808189830E5F1F4F8824A1
:1028B0008394912C530113C02801F2E04F0E511C58
:1028C000F801A080B18036FE03C0692D70E002C01F
:1028D0006FEF7FEFC5010E94D2164C018201F32DEC
:1028E000FF773F2E16C0280122E0420E511CF8014E
:1028F000A080B18036FE03C0692D70E002C06FEF8A
:102900007FEFC5010E94C7164C01F32DF0683F2EE2
:10291000820133FC1BC0822D90E088169906B0F42A
:10292000B60180E290E00E94DD162A94F4CFF50112
:1029300037FC859137FE81915F01B60190E00E94DE
:10294000DD1621102A9421E0821A91088114910445
:1029500071F7E8C0843611F0893641F5F80137FE89
:1029600007C060817181828193810C5F1F4F08C015
:1029700060817181072E000C880B990B0E5F1F4F31
:10298000F32DFF763F2E97FF09C0909580957095A7
:1029900061957F4F8F4F9F4FF0683F2E2AE030E0C8
:1029A000A3010E941917882E861845C0853731F477
:1029B000232D2F7EB22E2AE030E025C0932D997F63
:1029C000B92E8F36C1F018F4883579F0B5C080374C
:1029D00019F0883721F0B0C0E92FE061BE2EB4FEB7
:1029E0000DC0FB2DF460BF2E09C034FE0AC0292F94
:1029F0002660B22E06C028E030E005C020E130E0BD
:102A000002C020E132E0F801B7FE07C060817181A9
:102A1000828193810C5F1F4F06C06081718180E0CD
:102A200090E00E5F1F4FA3010E941917882E861891
:102A3000FB2DFF773F2E36FE0DC0232D2E7FA22EBD
:102A4000891458F434FE0BC032FC09C0832D8E7EED
:102A5000A82E05C0B82CA32C03C0B82C01C0B92CDB
:102A6000A4FE0FC0FE01E80DF11D8081803321F42A
:102A70009A2D997EA92E09C0A2FE06C0B394B394E4
:102A800004C08A2D867809F0B394A3FC11C0A0FE7F
:102A900006C0B21488F4280C922C9B180EC0B214F5
:102AA00060F4B60180E290E00E94DD16B394F7CFA7
:102AB000B21418F42B1802C0982C212CA4FE10C0BC
:102AC000B60180E390E00E94DD16A2FE17C0A1FCD3
:102AD00003C088E790E002C088E590E0B6010CC032
:102AE0008A2D867859F0A1FE02C08BE201C080E2F7
:102AF000A7FC8DE2B60190E00E94DD16891438F43F
:102B0000B60180E390E00E94DD169A94F7CF8A9494
:102B1000F301E80DF11D8081B60190E00E94DD1601
:102B20008110F5CF222009F442CEB60180E290E078
:102B30000E94DD162A94F6CFF6018681978102C0A5
:102B40008FEF9FEF2B96E2E10C9493170F931F9357
:102B5000CF93DF938230910510F482E090E0E09112
:102B6000B705F091B80520E030E0A0E0B0E0309784
:102B700019F1408151810281138148175907C8F02A
:102B80008417950769F4109731F012960C931297F9
:102B900013961C9327C00093B7051093B80522C065
:102BA0002115310519F04217530718F49A01BD0198
:102BB000EF01DF01F801DBCF21153105F9F0281B0A
:102BC000390B2430310580F48A819B8161157105B0
:102BD00021F0FB019383828304C09093B805809316
:102BE000B705FE01329644C0FE01E20FF31F819348
:102BF000919322503109398328833AC02091B50539
:102C00003091B605232B41F420910301309104014A
:102C10003093B6052093B505209101013091020152
:102C20002115310541F42DB73EB740910501509172
:102C30000601241B350BE091B505F091B605E217AE
:102C4000F307A0F42E1B3F0B2817390778F0AC01CF
:102C50004E5F5F4F2417350748F04E0F5F1F5093AC
:102C6000B6054093B5058193919302C0E0E0F0E092
:102C7000CF01DF91CF911F910F910895CF93DF93F3
:102C8000009709F481C0FC01329713821282A0914F
:102C9000B705B091B805109781F420813181820F7A
:102CA000931F2091B5053091B6052817390751F5C6
:102CB000F093B605E093B50567C0ED0120E030E084
:102CC000CE17DF0740F44A815B819E014115510513
:102CD000F1F0EA01F5CFD383C28340815181840FA3
:102CE000951FC817D90759F488819981840F951FBA
:102CF0000296918380838A819B81938382832115AD
:102D0000310529F4F093B805E093B7053DC0E9011A
:102D1000FB83EA8349915991C40FD51FEC17FD0736
:102D200061F480819181840F951F0296E901998356
:102D30008883828193819B838A83E0E0F0E012960E
:102D40008D919C911397009719F0FD01DC01F7CF4D
:102D50008D919C9111979D012E5F3F4F820F931F84
:102D60002091B5053091B6052817390769F43097D9
:102D700029F41092B8051092B70502C0138212828E
:102D8000B093B605A093B505DF91CF910895FC01EE
:102D90000590615070400110D8F7809590958E0F86
:102DA0009F1F0895FC016150704001900110D8F7F9
:102DB000809590958E0F9F1F08950F931F93CF932B
:102DC000DF93FB01238121FD03C08FEF9FEF2CC018
:102DD00022FF16C04681578124813581421753074F
:102DE00044F4A081B1819D012F5F3F4F3183208347
:102DF0008C93268137812F5F3F4F3783268314C002
:102E00008B01EC01FB010084F185E02D0995892BF4
:102E1000E1F6D80116968D919C9117970196179619
:102E20009C938E931697CE01DF91CF911F910F91B6
:102E30000895FA01AA27283051F1203181F1E89450
:102E40006F936E7F6E5F7F4F8F4F9F4FAF4FB1E09D
:102E50003ED0B4E03CD0670F781F891F9A1FA11D98
:102E6000680F791F8A1F911DA11D6A0F711D811D99
:102E7000911DA11D20D009F468943F912AE0269F5E
:102E800011243019305D3193DEF6CF010895462FBD
:102E90004770405D4193B3E00FD0C9F7F6CF462F9E
:102EA0004F70405D4A3318F0495D31FD4052419307
:102EB00002D0A9F7EACFB4E0A695979587957795C4
:102EC0006795BA95C9F700976105710508959B014B
:102ED000AC010A2E06945795479537952795BA95D4
:102EE000C9F7620F731F841F951FA01D08952F92AD
:102EF0003F924F925F926F927F928F929F92AF928A
:102F0000BF92CF92DF92EF92FF920F931F93CF93D6
:102F1000DF93CDB7DEB7CA1BDB0B0FB6F894DEBF6D
:102F20000FBECDBF09942A88398848885F846E8493
:102F30007D848C849B84AA84B984C884DF80EE80DD
:102F4000FD800C811B81AA81B981CE0FD11D0FB6E6
:102F5000F894DEBF0FBECDBFED0108955058BB27DA
:102F6000AA270E94C6170C9496190E94881938F057
:102F70000E948F1920F039F49F3F19F426F40C9425
:102F80005E190EF4E095E7FB0C945819E92F0E94A6
:102F9000A71958F3BA17620773078407950720F03B
:102FA00079F4A6F50C94C9190EF4E0950B2EBA2FFE
:102FB000A02D0B01B90190010C01CA01A00111243F
:102FC000FF27591B99F0593F50F4503E68F11A16EB
:102FD000F040A22F232F342F4427585FF3CF46957C
:102FE00037952795A795F0405395C9F77EF41F169E
:102FF000BA0B620B730B840BBAF09150A1F0FF0F68
:10300000BB1F661F771F881FC2F70EC0BA0F621F53
:10301000731F841F48F4879577956795B795F79543
:103020009E3F08F0B0CF9395880F08F09927EE0FD8
:10303000979587950895DF93DD27B92FBF7740E8EF
:103040005FE31616170648075B0718F4D92F0E948E
:10305000D5199F938F937F936F930E94901AE8E600
:10306000F0E00E9461190E9496192F913F914F91B3
:103070005F910E94F019DD2351F09058A2EA2AEDE9
:103080003FE049EC5FE3D0785D270E94C617DF91EF
:103090000C9496190E94341908F481E008950E9456
:1030A00063180C9496190E948F1958F00E94881981
:1030B00040F029F45F3F29F00C94581951110C94F9
:1030C000CA190C945E190E94A71968F39923B1F3E9
:1030D000552391F3951B550BBB27AA27621773073E
:1030E000840738F09F5F5F4F220F331F441FAA1FD2
:1030F000A9F335D00E2E3AF0E0E832D0915050408E
:10310000E695001CCAF72BD0FE2F29D0660F771F3B
:10311000881FBB1F261737074807AB07B0E809F021
:10312000BB0B802DBF01FF2793585F4F3AF09E3FA6
:10313000510578F00C9458190C94CA195F3FE4F3C8
:10314000983ED4F3869577956795B795F7959F5FE9
:10315000C9F7880F911D9695879597F90895E1E035
:10316000660F771F881FBB1F621773078407BA0794
:1031700020F0621B730B840BBA0BEE1F88F7E095EF
:1031800008950E94C8186894B1110C94CA19089542
:103190000E94AF1988F09F5798F0B92F9927B7511F
:1031A000B0F0E1F0660F771F881F991F1AF0BA95EB
:1031B000C9F714C0B13091F00E94C919B1E0089567
:1031C0000C94C919672F782F8827B85F39F0B93F59
:1031D000CCF3869577956795B395D9F73EF490959E
:1031E0008095709561957F4F8F4F9F4F0895E8941C
:1031F00009C097FB3EF490958095709561957F4F3F
:103200008F4F9F4F9923A9F0F92F96E9BB279395EC
:10321000F695879577956795B795F111F8CFFAF4FC
:10322000BB0F11F460FF1BC06F5F7F4F8F4F9F4F2D
:1032300016C0882311F096E911C0772321F09EE88B
:10324000872F762F05C0662371F096E8862F70E0F1
:1032500060E02AF09A95660F771F881FDAF7880FCB
:103260009695879597F90895990F0008550FAA0B21
:10327000E0E8FEEF16161706E807F907C0F0121689
:103280001306E407F50798F0621B730B840B950B8C
:1032900039F40A2661F0232B242B252B21F40895E1
:1032A0000A2609F4A140A6958FEF811D811D08957E
:1032B00097F99F6780E870E060E008959FEF80ECE9
:1032C0000895DF93CF931F930F93FF92EF92DF92B6
:1032D0007B018C01689406C0DA2EEF010E94F01980
:1032E000FE01E894A5912591359145915591A6F35C
:1032F000EF010E94C617FE019701A801DA9469F751
:10330000DF90EF90FF900F911F91CF91DF91089583
:1033100000240A94161617061806090608950024B4
:103320000A9412161306140605060895092E03942E
:10333000000C11F4882352F0BB0F40F4BF2B11F4A2
:1033400060FF04C06F5F7F4F8F4F9F4F089557FD01
:103350009058440F551F59F05F3F71F04795880F03
:1033600097FB991F61F09F3F79F08795089512169A
:1033700013061406551FF2CF4695F1DF08C0161646
:1033800017061806991FF1CF8695710561050894F7
:103390000895E894BB2766277727CB0197F908950E
:1033A0000E94341908F48FEF08959B01AC0160E08E
:1033B00070E080E89FE30C944F180E94F0190C9481
:1033C00096190E94881938F00E948F1920F09523D1
:1033D00011F00C9458190C945E1911240C94CA190C
:1033E0000E94A71970F3959FC1F3950F50E0551FE8
:1033F000629FF001729FBB27F00DB11D639FAA274A
:10340000F00DB11DAA1F649F6627B00DA11D661F98
:10341000829F2227B00DA11D621F739FB00DA11DB9
:10342000621F839FA00D611D221F749F3327A00D73
:10343000611D231F849F600D211D822F762F6A2F0F
:1034400011249F5750409AF0F1F088234AF0EE0F74
:10345000FF1FBB1F661F771F881F91505040A9F7A1
:103460009E3F510580F00C9458190C94CA195F3F87
:10347000E4F3983ED4F3869577956795B795F795DD
:10348000E7959F5FC1F7FE2B880F911D9695879555
:1034900097F9089519F416F40C945E190C94941A83
:1034A0000E94AF19B8F39923C9F3B6F39F57550B90
:1034B00087FF0E94A21A0024A0E640EA90018058EB
:1034C0005695979528F4805C660F771F881F20F02B
:1034D00026173707480730F4621B730B840B20292B
:1034E00031294A2BA69517940794202531254A2780
:1034F00058F7660F771F881F20F0261737074807F1
:1035000030F4620B730B840B200D311D411DA0950F
:1035100081F7B901842F9158880F96958795089562
:103520009B01AC010C94DD199F3F31F0915020F4C8
:10353000879577956795B795880F911D969587958F
:1035400097F9089591505040660F771F881FD2F762
:10355000089597FB072E16F4009407D077FD09D045
:103560000E94051B07FC05D03EF4909581959F4F66
:103570000895709561957F4F0895A1E21A2EAA1BB8
:10358000BB1BFD010DC0AA1FBB1FEE1FFF1FA21713
:10359000B307E407F50720F0A21BB30BE40BF50B10
:1035A000661F771F881F991F1A9469F76095709599
:1035B000809590959B01AC01BD01CF010895052E2A
:1035C00097FB1EF400940E94F61A57FD07D00E9444
:1035D000BD1A07FC03D04EF40C94F61A5095409592
:1035E000309521953F4F4F4F5F4F089590958095AF
:1035F000709561957F4F8F4F9F4F08950E941F1BBD
:10360000B7FF0895821B930B0895AA1BBB1B51E1C2
:1036100007C0AA1FBB1FA617B70710F0A61BB70B42
:10362000881F991F5A95A9F780959095BC01CD01E7
:103630000895EE0FFF1F0590F491E02D0994A29FCD
:10364000B001B39FC001A39F700D811D1124911D76
:10365000B29F700D811D1124911D0895A0E0B0E06E
:10366000E4E3FBE10C947B17EC01009721F4CB0120
:103670000E94A615B4C0FC01E60FF71F9C01225062
:103680003109E217F30708F4A8C0D9010D911C9184
:10369000119706171707B0F00530110508F49BC005
:1036A000C80104978617970708F495C002501109BE
:1036B000061B170B019311936D937C93CF010E940E
:1036C0003E1689C05B01A01AB10A4C01800E911E02
:1036D000A091B705B091B805612C712CE12CF12CAB
:1036E000109709F446C08D919C911197A815B905C2
:1036F000B1F56C0142E0C40ED11CCA14DB0478F1B0
:103700004C018A189B08640142E0C40ED11C129639
:10371000BC9012971396AC91B5E0CB16D10440F053
:10372000B282A38391828082D9016D937C9309C078
:103730000E5F1F4F800F911FF90191838083EB2D46
:10374000FA2FE114F10431F0D7011396FC93EE93B4
:10375000129741C0F093B805E093B7053CC06816D6
:10376000790608F43C017D0112960D90BC91A02DC4
:10377000B7CF8091B5059091B60588169906E1F40A
:1037800066167706C8F480910101909102010097B6
:1037900041F48DB79EB74091050150910601841BFD
:1037A000950BE817F907C8F4F093B605E093B50553
:1037B000F901718360830FC0CB010E94A6157C01C3
:1037C000009759F0A801BE010E94F91BCE010E948A
:1037D0003E16C70104C0CE0102C080E090E0CDB724
:1037E000DEB7EEE00C94971781E090E0F8940C942B
:1037F0001F1CFB01DC0102C001900D9241505040A2
:10380000D8F70895FB01DC0101900D920020E1F74B
:103810000895A0E0B0E0EFE0FCE10C948717AE0162
:103820004B5F5F4FFA0161917191AF018091B105DA
:103830009091B2050E94C513E2E00C94A317F8948E
:02384000FFCFB8
:10384200FF0000B905800000FF0100010000FFFF3A
:103852000000010001FF00020104036779726F207A
:10386200783A200000000000000020206779726F83
:1038720020793A20000000000020206779726F2032
:103882007A3A2000000000002020616363656C200A
:10389200783A20000000002020616363656C207983
:1038A2003A20000000002020616363656C207A3AB0
:1038B20020000000000800080004000800080004BE
:1038C20000080008000800080002000800080008BC
:1038D2000008000800080008001000100008000896
:1038E200000800080004000400930293029302936C
:1038F2000293029302930210030B024B029302BA49
:1039020002BA02BA02BA02BA029302930293029371
:103912000293024B024B0293024B02100304000873
:10392200000800040004000400040004000601C4AE
:1039320000C400DC00C4000000F700060100000023
:1039420000CD01D30DA4001A02D500B300C70000B8
:1039520000000076014901A6011D0141012D011E51
:10396200014F7574206F66206D656D6F7279202826
:10397200747261636B5F73697A6529004F75742095
:103982006F66206D656D6F72792028747261636B4A
:103992005F6D656C6F647929004F7574206F6620C6
:1039A2006D656D6F72792028747261636B5F6475E7
:1039B200726174696F6E2900546865206368696C6E
:1039C2006420616C726561647920657869737473CF
:1039D20021004572726F7220696E206D656D6F7283
:1039E2007920616C6C6F636174696F6E00537461EE
:1039F2007274696E6700496E697469616C697A698B
:103A02006E67206D656E752E2E2E2E202020004DA5
:103A120061696E204D656E750053657474696E67D9
:103A220073004D6F6E69746F7200526164696F004A
:103A320053656C6563742073657474696E670065A1
:103A42006469742073657474696E670064656C657B
:103A520074652073657474696E67004E65772073B0
:103A6200657474696E67004372656174652F45649D
:103A72006974206E616D65004D656E7520696E69B1
:103A82007469616C697A656400496E697469616C14
:103A9200697A696E6720736F756E642E2E2E2020F0
:103AA2002000536F756E6420696E697469616C6978
:103AB2007A656400696E7369646520636F6E7374FE
:103AC200727563746F720043616C696272617469CA
:103AD2006E672E2E00444F4E452100746865726554
:103AE20000676F00496E697469616C697A696E6713
:103AF20020636F6D706C6574656400546865206343
:103B020068696C64207769746820616E206964203A
:103B12006F66202225692220646964206E6F7420FA
:103B2200666F756E640A00546865206E6569676821
:103B3200626F7572207769746820616E20646972A1
:103B4200656374696F6E20636F6465202225692244
:103B520020646964206E6F7420666F756E64000D58
:023B62000A0057
:00000001FF
